:03000000021013D8
:0C101300787FE4F6D8FD75813002105A99
:1010FA00022D0000022F000002230000022500003A
:10110A0002290000022B000001210001220001280F
:04111A0000012700A9
:10111F00D3EF9400EE648094804007EF1F70F11EB0
:03112F0080EE222D
:0C113200E530C454F0252E2411F5802275
:10109F00E4FBFAEB6407F5B0AF03A807E52108807E
:1010AF0002C313D8FC1392B4AF03A807E52208803C
:1010BF0002C313D8FC1392B5AF03A807E528088025
:1010CF0002C313D8FC1392B6AF03A807E527088015
:1010DF0002C313D8FC1392B77F327E0012111F0B7D
:0A10EF00BB00010AEB64084A70A977
:0110F90022D4
:060800008B088A09890A39
:10080600120F7B45F07003020968751D00751E07FF
:10081600D201AB17AA18A919120F7BFFD3E51E9FA9
:10082600E5F06480F8E51D6480985003020927AB63
:1008360014AA15A916120F50FD7C007E007401A89B
:100846001E088005C333CE33CED8F9FFEE5CFEEF2B
:100856005D4E600302090B7E007401A81E08800528
:10086600C333CE33CED8F9FFEF55286042AB11AA79
:1008760012A913120F7B45F07033AB17AA18A919EA
:10088600120F7BFFAEF0AB1AAA1BA91C120F7BFD41
:10089600ACF0D39FEE6480F8EC648098400FD3ED03
:1008A600951EE51D6480F8EC648098400280567EB3
:1008B600007401A81E088005C333CE33CED8F9FFD5
:1008C600EF55276051AB11AA12A913120F7B45F001
:1008D6007033AB17AA18A919120F7BFFAEF0AB1A2B
:1008E600AA1BA91C120F7BFDACF0D39FEE6480F807
:1008F600EC648098400FD3ED951EE51D6480F8ECFE
:100906006480984011C201AB17AA18A919E475F0C2
:1009160001120FA6800BE51E151E7002151D02089A
:1009260018300109AB08AA09A90A020A97AB17AA47
:1009360018A919120F7BFFAEF0B51E14EEB51D10E7
:10094600AD1EA8057401088002C333D8FC020ABD97
:10095600A8077401088002C333D8FCF4FF522802AA
:100966000ADEAB0EAA0FA910120F7B45F070030228
:100976000AEBE4F51DF51ED201AB17AA18A9191248
:100986000F7BFFC3E51E9FE5F06480F8E51D6480DC
:10099600984003020A8EAB14AA15A916120F50FD31
:1009A6007C007E007401A81E088005C333CE33CEBA
:1009B600D8F9FFEE5CFEEF5D4E6003020A727E0020
:1009C6007401A81E088005C333CE33CED8F9FFEFD5
:1009D60055276042AB0BAA0CA90D120F7B45F07090
:1009E60033AB17AA18A919120F7BFFAEF0AB1AAAE0
:1009F6001BA91C120F7BFDACF0C39FEE6480F8ECC4
:100A0600648098500FC3ED951EE51D6480F8EC6474
:100A16008098500280567E007401A81E088005C387
:100A260033CE33CED8F9FFEF55286051AB0BAA0C65
:100A3600A90D120F7B45F07033AB17AA18A919122E
:100A46000F7BFFAEF0AB1AAA1BA91C120F7BFDACE5
:100A5600F0C39FEE6480F8EC648098500FC3ED9568
:100A66001EE51D6480F8EC6480985011C201AB1736
:100A7600AA18A91974FFF5F0120FA6800B051EE53A
:100A86001E7002051D02097F30010CAB0EAA0FA9CC
:100A960010E4F5F0020DB9AB17AA18A919120F7BCD
:100AA600FFAEF0B51E23EEB51D1FAD1EA8057401E1
:100AB600088002C333D8FCF4FD52285227AB14AA8F
:100AC60015A916120F505D8019A807740108800237
:100AD600C333D8FCF4FF5227AB14AA15A916120F7C
:100AE600505F020F69751D00751E07AB17AA18A97E
:100AF60019120F7BFFD3E51E9FE5F06480F8E51D14
:100B06006480985003020C58AB14AA15A916120F4C
:100B160050FD7C007E007401A81E088005C333CEFC
:100B260033CED8F9FFEE5CFEEF5D4E600DAB08AA42
:100B360009A90AE475F001020DB97E007401A81E28
:100B4600088005C333CE33CED8F9FFEF552860733E
:100B5600AB11AA12A913120F7B45F07059AB17AA55
:100B660018A919120F7BFFAEF0AB1AAA1BA91C120B
:100B76000F7BFDACF0C39FEE6480F8EC6480984078
:100B860035AB17AA18A919120F7BB50511ECB5F0EC
:100B96000DAB0BAA0CA90D120F7B45F06018AB1A12
:100BA600AA1BA91C120F7BD3951EE51D6480F8E5D0
:100BB600F0648098400DAB08AA09A90AE475F00113
:100BC600020DB97E007401A81E088005C333CE331A
:100BD600CED8F9FFEF55277003020DDCAB11AA1230
:100BE600A913120F7B45F0705CAB17AA18A919124E
:100BF6000F7BFFAEF0AB1AAA1BA91C120F7BFDAC34
:100C0600F0C39FEE6480F8EC6480984038AB17AA76
:100C160018A919120F7BB50511ECB5F00DAB0BAA8F
:100C26000CA90D120F7B45F0601BAB1AAA1BA91C61
:100C3600120F7BD3951EE51D6480F8E5F06480985D
:100C46005003020DDCAB08AA09A90AE475F00102FB
:100C56000DB9AB17AA18A919120F7BFFC3E51E9F82
:100C6600E5F06480F8E51D6480984003020DBCAB96
:100C760014AA15A916120F50FD7C007E007401A857
:100C86001E088005C333CE33CED8F9FFEE5CFEEFE7
:100C96005D4E600DAB0EAA0FA910E475F001020DB2
:100CA600B97E007401A81E088005C333CE33CED8A2
:100CB600F9FFEF55276073AB0BAA0CA90D120F7B3A
:100CC60045F07059AB17AA18A919120F7BFFAEF0A1
:100CD600AB1AAA1BA91C120F7BFDACF0D39FEE64C6
:100CE60080F8EC6480985035AB17AA18A919120F32
:100CF6007BB50511ECB5F00DAB11AA12A913120FB5
:100D06007B45F06018AB1AAA1BA91C120F7BC39572
:100D16001EE51D6480F8E5F0648098500DAB0EAAC0
:100D26000FA910E475F001020DB97E007401A81E2A
:100D3600088005C333CE33CED8F9FFEF55287003AC
:100D4600020DDCAB0BAA0CA90D120F7B45F07059F6
:100D5600AB17AA18A919120F7BFFAEF0AB1AAA1B84
:100D6600A91C120F7BFDACF0D39FEE6480F8EC64F7
:100D760080985035AB17AA18A919120F7BB5051123
:100D8600ECB5F00DAB11AA12A913120F7B45F0605A
:100D960018AB1AAA1BA91C120F7BC3951EE51D646E
:100DA60080F8E5F0648098502DAB0EAA0FA910E4E8
:100DB60075F001020FDEAF1EA8077401088002C39A
:100DC60033D8FCF4FF52285227AB14AA15A91612E1
:100DD6000F505F120F69E51E151E7002151DE51EE8
:0B0DE600F47003E51DF46003020AF145
:010DF10022DF
:100DF200D200121132E4FDFCC3ED9478EC648094CD
:100E0200804003020ECCA297829382A382A7300075
:100E120001B34003020EC1200003020EBFC2002034
:100E22009325A291E43325E0FFA290E4334FFFA281
:100E320092E43325E025E04FFFF87401088002C3F5
:100E420033D8FC547F4228209725A295E43325E02D
:100E5200FFA294E4334FFFA296E43325E025E04F4E
:100E6200FFF87401088002C333D8FC54FE422720E5
:100E7200A323A2A1E43325E0FFA2A0E4334FFFA203
:100E8200A2E43325E025E04FFFF87401088002C395
:100E920033D8FC422120A727A2A5E43325E0FFA2F4
:100EA200A4E4334FFFA2A6E43325E025E04FFFF888
:100EB2007401088002C333D8FC42228002D2000DA2
:100EC200BD00010C12109F020DFA750B00750C008B
:100ED200750D25750E00750F0075102975110075B9
:100EE200120075132B7514007515007516217517F0
:100EF2000075180075192D751A00751B00751C2FC9
:100F02007B007A007923120800750B00750C0075BE
:100F12000D23750E00750F0075102B7511007512DB
:100F220000751329751400751500751622751700C2
:100F320075180075192F751A00751B00751C2D7B0D
:0E0F4200007A007925120800121132020DF714
:10101F00020DF2E493A3F8E493A34003F68001F2E8
:10102F0008DFF48029E493A3F85407240CC8C333D2
:10103F00C4540F4420C8834004F456800146F6DFA1
:10104F00E4800B01020408102040809010FAE47E27
:10105F00019360BCA3FF543F30E509541FFEE49396
:10106F00A360010ECF54C025E060A840B8E493A35D
:10107F00FAE493A3F8E493A3C8C582C8CAC583CA88
:10108F00F0A3C8C582C8CAC583CADFE9DEE780BE40
:01111E0000D0
:100F5000BB010689828A83E0225002E722BBFE029F
:090F6000E32289828A83E49322D2
:100F6900BB010689828A83F0225002F722BBFE0167
:020F7900F32261
:100F7B00BB010A89828A83E0F5F0A3E02250068741
:100F8B00F009E71922BBFE07E3F5F009E319228903
:0B0F9B00828A83E493F5F07401932236
:100FA600BB010789828A83020FFD500B09C5F02712
:100FB600F7C5F01937F722BBFE0D09F8E325F0F364
:100FC600C5F019E338F322F889828A8374019325E0
:080FD600F0C5F0F8E4933822A5
:100FDE00BB010A89828A83F0E5F0A3F0225006F75E
:0F0FEE0009A7F01922BBFE06F3E5F009F319225B
:100FFD00C5F0F8A3E028F0C5F0F8E582158270027F
:06100D001583E038F0221B
:00000001FF
